:100000000C942A000C9434000C9434000C943400AA
:100010000C9434000C9434000C9434000C94340090
:100020000C9434000C9434000C9434000C94340080
:100030000C9434000C9434000C9434000C94340070
:100040000C9434000C9434000C9434000C94340060
:100050000C94340011241FBECFE5D4E0DEBFCDBF29
:100060000E9436000C946A000C9400008EEF8ABB4C
:10007000D89A94E6C899FECFDA9A892FD99AE6E7FA
:10008000F1E03197F1F700C00000D998E0E1F2E12A
:100090003197F1F700C00000815081F7FFEB27E2B4
:1000A00039E0F15020403040E1F700C00000892FD6
:1000B000D99AE9EFF0E03197F1F700C00000D99844
:1000C000EDE8F2E13197F1F700C00000815081F7CF
:0800D0001BBAD0CFF894FFCF5A
:00000001FF
